{
  "_format": "hh-sol-artifact-1",
  "contractName": "CertificateContract",
  "sourceName": "contracts/CertificateContract.sol",
  "abi": [
    {
      "anonymous": false,
      "inputs": [
        {
          "indexed": true,
          "internalType": "address",
          "name": "issuer",
          "type": "address"
        },
        {
          "indexed": true,
          "internalType": "address",
          "name": "student",
          "type": "address"
        },
        {
          "indexed": false,
          "internalType": "uint256",
          "name": "tokenId",
          "type": "uint256"
        }
      ],
      "name": "CertificateIssued",
      "type": "event"
    },
    {
      "inputs": [
        {
          "internalType": "uint256",
          "name": "tokenId",
          "type": "uint256"
        }
      ],
      "name": "getCertificate",
      "outputs": [
        {
          "internalType": "address",
          "name": "student",
          "type": "address"
        },
        {
          "internalType": "string",
          "name": "studentName",
          "type": "string"
        },
        {
          "internalType": "string",
          "name": "courseName",
          "type": "string"
        },
        {
          "internalType": "string",
          "name": "completionDate",
          "type": "string"
        },
        {
          "internalType": "string",
          "name": "grade",
          "type": "string"
        }
      ],
      "stateMutability": "view",
      "type": "function"
    },
    {
      "inputs": [
        {
          "internalType": "address",
          "name": "student",
          "type": "address"
        }
      ],
      "name": "getStudentCertificates",
      "outputs": [
        {
          "internalType": "uint256[]",
          "name": "",
          "type": "uint256[]"
        }
      ],
      "stateMutability": "view",
      "type": "function"
    },
    {
      "inputs": [
        {
          "internalType": "address",
          "name": "student",
          "type": "address"
        },
        {
          "internalType": "string",
          "name": "studentName",
          "type": "string"
        },
        {
          "internalType": "string",
          "name": "courseName",
          "type": "string"
        },
        {
          "internalType": "string",
          "name": "completionDate",
          "type": "string"
        },
        {
          "internalType": "string",
          "name": "grade",
          "type": "string"
        }
      ],
      "name": "issueCertificate",
      "outputs": [
        {
          "internalType": "uint256",
          "name": "",
          "type": "uint256"
        }
      ],
      "stateMutability": "nonpayable",
      "type": "function"
    },
    {
      "inputs": [
        {
          "internalType": "uint256",
          "name": "tokenId",
          "type": "uint256"
        }
      ],
      "name": "verifyCertificate",
      "outputs": [
        {
          "internalType": "bool",
          "name": "",
          "type": "bool"
        }
      ],
      "stateMutability": "view",
      "type": "function"
    }
  ],
  "bytecode": "0x6080604052600160025534801561001557600080fd5b50611199806100256000396000f3fe608060405234801561001057600080fd5b506004361061004c5760003560e01c80631692a9421461005157806351640fee14610081578063e9dd92ee146100b5578063ebc63bc0146100e5575b600080fd5b61006b60048036038101906100669190610810565b610115565b6040516100789190610858565b60405180910390f35b61009b60048036038101906100969190610810565b610141565b6040516100ac959493929190610944565b60405180910390f35b6100cf60048036038101906100ca9190610b14565b6104b2565b6040516100dc9190610c0e565b60405180910390f35b6100ff60048036038101906100fa9190610c29565b61072f565b60405161010c9190610d14565b60405180910390f35b600080600083815260200190815260200160002060050160009054906101000a900460ff169050919050565b600060608060608060008087815260200190815260200160002060050160009054906101000a900460ff166101ab576040517f08c379a00000000000000000000000000000000000000000000000000000000081526004016101a290610d82565b60405180910390fd5b60008060008881526020019081526020016000206040518060c00160405290816000820160009054906101000a900473ffffffffffffffffffffffffffffffffffffffff1673ffffffffffffffffffffffffffffffffffffffff1673ffffffffffffffffffffffffffffffffffffffff16815260200160018201805461023090610dd1565b80601f016020809104026020016040519081016040528092919081815260200182805461025c90610dd1565b80156102a95780601f1061027e576101008083540402835291602001916102a9565b820191906000526020600020905b81548152906001019060200180831161028c57829003601f168201915b505050505081526020016002820180546102c290610dd1565b80601f01602080910402602001604051908101604052809291908181526020018280546102ee90610dd1565b801561033b5780601f106103105761010080835404028352916020019161033b565b820191906000526020600020905b81548152906001019060200180831161031e57829003601f168201915b5050505050815260200160038201805461035490610dd1565b80601f016020809104026020016040519081016040528092919081815260200182805461038090610dd1565b80156103cd5780601f106103a2576101008083540402835291602001916103cd565b820191906000526020600020905b8154815290600101906020018083116103b057829003601f168201915b505050505081526020016004820180546103e690610dd1565b80601f016020809104026020016040519081016040528092919081815260200182805461041290610dd1565b801561045f5780601f106104345761010080835404028352916020019161045f565b820191906000526020600020905b81548152906001019060200180831161044257829003601f168201915b505050505081526020016005820160009054906101000a900460ff161515151581525050905080600001518160200151826040015183606001518460800151955095509550955095505091939590929450565b60008073ffffffffffffffffffffffffffffffffffffffff168673ffffffffffffffffffffffffffffffffffffffff1603610522576040517f08c379a000000000000000000000000000000000000000000000000000000000815260040161051990610e4e565b60405180910390fd5b60006002600081548092919061053790610e9d565b9190505590506040518060c001604052808873ffffffffffffffffffffffffffffffffffffffff1681526020018781526020018681526020018581526020018481526020016001151581525060008083815260200190815260200160002060008201518160000160006101000a81548173ffffffffffffffffffffffffffffffffffffffff021916908373ffffffffffffffffffffffffffffffffffffffff16021790555060208201518160010190816105f19190611091565b5060408201518160020190816106079190611091565b50606082015181600301908161061d9190611091565b5060808201518160040190816106339190611091565b5060a08201518160050160006101000a81548160ff021916908315150217905550905050600160008873ffffffffffffffffffffffffffffffffffffffff1673ffffffffffffffffffffffffffffffffffffffff1681526020019081526020016000208190806001815401808255809150506001900390600052602060002001600090919091909150558673ffffffffffffffffffffffffffffffffffffffff163373ffffffffffffffffffffffffffffffffffffffff167f38852d3790cecf8789b659b361b1b912c0376598019c00c87b8ce9142f3c34538360405161071a9190610c0e565b60405180910390a38091505095945050505050565b6060600160008373ffffffffffffffffffffffffffffffffffffffff1673ffffffffffffffffffffffffffffffffffffffff1681526020019081526020016000208054806020026020016040519081016040528092919081815260200182805480156107ba57602002820191906000526020600020905b8154815260200190600101908083116107a6575b50505050509050919050565b6000604051905090565b600080fd5b600080fd5b6000819050919050565b6107ed816107da565b81146107f857600080fd5b50565b60008135905061080a816107e4565b92915050565b600060208284031215610826576108256107d0565b5b6000610834848285016107fb565b91505092915050565b60008115159050919050565b6108528161083d565b82525050565b600060208201905061086d6000830184610849565b92915050565b600073ffffffffffffffffffffffffffffffffffffffff82169050919050565b600061089e82610873565b9050919050565b6108ae81610893565b82525050565b600081519050919050565b600082825260208201905092915050565b60005b838110156108ee5780820151818401526020810190506108d3565b60008484015250505050565b6000601f19601f8301169050919050565b6000610916826108b4565b61092081856108bf565b93506109308185602086016108d0565b610939816108fa565b840191505092915050565b600060a08201905061095960008301886108a5565b818103602083015261096b818761090b565b9050818103604083015261097f818661090b565b90508181036060830152610993818561090b565b905081810360808301526109a7818461090b565b90509695505050505050565b6109bc81610893565b81146109c757600080fd5b50565b6000813590506109d9816109b3565b92915050565b600080fd5b600080fd5b7f4e487b7100000000000000000000000000000000000000000000000000000000600052604160045260246000fd5b610a21826108fa565b810181811067ffffffffffffffff82111715610a4057610a3f6109e9565b5b80604052505050565b6000610a536107c6565b9050610a5f8282610a18565b919050565b600067ffffffffffffffff821115610a7f57610a7e6109e9565b5b610a88826108fa565b9050602081019050919050565b82818337600083830152505050565b6000610ab7610ab284610a64565b610a49565b905082815260208101848484011115610ad357610ad26109e4565b5b610ade848285610a95565b509392505050565b600082601f830112610afb57610afa6109df565b5b8135610b0b848260208601610aa4565b91505092915050565b600080600080600060a08688031215610b3057610b2f6107d0565b5b6000610b3e888289016109ca565b955050602086013567ffffffffffffffff811115610b5f57610b5e6107d5565b5b610b6b88828901610ae6565b945050604086013567ffffffffffffffff811115610b8c57610b8b6107d5565b5b610b9888828901610ae6565b935050606086013567ffffffffffffffff811115610bb957610bb86107d5565b5b610bc588828901610ae6565b925050608086013567ffffffffffffffff811115610be657610be56107d5565b5b610bf288828901610ae6565b9150509295509295909350565b610c08816107da565b82525050565b6000602082019050610c236000830184610bff565b92915050565b600060208284031215610c3f57610c3e6107d0565b5b6000610c4d848285016109ca565b91505092915050565b600081519050919050565b600082825260208201905092915050565b6000819050602082019050919050565b610c8b816107da565b82525050565b6000610c9d8383610c82565b60208301905092915050565b6000602082019050919050565b6000610cc182610c56565b610ccb8185610c61565b9350610cd683610c72565b8060005b83811015610d07578151610cee8882610c91565b9750610cf983610ca9565b925050600181019050610cda565b5085935050505092915050565b60006020820190508181036000830152610d2e8184610cb6565b905092915050565b7f436572746966696361746520646f6573206e6f74206578697374000000000000600082015250565b6000610d6c601a836108bf565b9150610d7782610d36565b602082019050919050565b60006020820190508181036000830152610d9b81610d5f565b9050919050565b7f4e487b7100000000000000000000000000000000000000000000000000000000600052602260045260246000fd5b60006002820490506001821680610de957607f821691505b602082108103610dfc57610dfb610da2565b5b50919050565b7f496e76616c69642073747564656e742061646472657373000000000000000000600082015250565b6000610e386017836108bf565b9150610e4382610e02565b602082019050919050565b60006020820190508181036000830152610e6781610e2b565b9050919050565b7f4e487b7100000000000000000000000000000000000000000000000000000000600052601160045260246000fd5b6000610ea8826107da565b91507fffffffffffffffffffffffffffffffffffffffffffffffffffffffffffffffff8203610eda57610ed9610e6e565b5b600182019050919050565b60008190508160005260206000209050919050565b60006020601f8301049050919050565b600082821b905092915050565b600060088302610f477fffffffffffffffffffffffffffffffffffffffffffffffffffffffffffffffff82610f0a565b610f518683610f0a565b95508019841693508086168417925050509392505050565b6000819050919050565b6000610f8e610f89610f84846107da565b610f69565b6107da565b9050919050565b6000819050919050565b610fa883610f73565b610fbc610fb482610f95565b848454610f17565b825550505050565b600090565b610fd1610fc4565b610fdc818484610f9f565b505050565b5b8181101561100057610ff5600082610fc9565b600181019050610fe2565b5050565b601f8211156110455761101681610ee5565b61101f84610efa565b8101602085101561102e578190505b61104261103a85610efa565b830182610fe1565b50505b505050565b600082821c905092915050565b60006110686000198460080261104a565b1980831691505092915050565b60006110818383611057565b9150826002028217905092915050565b61109a826108b4565b67ffffffffffffffff8111156110b3576110b26109e9565b5b6110bd8254610dd1565b6110c8828285611004565b600060209050601f8311600181146110fb57600084156110e9578287015190505b6110f38582611075565b86555061115b565b601f19841661110986610ee5565b60005b828110156111315784890151825560018201915060208501945060208101905061110c565b8683101561114e578489015161114a601f891682611057565b8355505b6001600288020188555050505b50505050505056fea2646970667358221220c6b3d7890aaeb88f86b9115dff74a8b5941961017249a75d0949adc285ce120b64736f6c63430008180033",
  "linkReferences": {},
  "deployedLinkReferences": {}
}